{
  "_format": "hh-sol-artifact-1",
  "contractName": "EventManager",
  "sourceName": "contracts/EventManager.sol",
  "abi": [
    {
      "inputs": [],
      "stateMutability": "nonpayable",
      "type": "constructor"
    },
    {
      "inputs": [],
      "name": "AlreadyRegistered",
      "type": "error"
    },
    {
      "inputs": [],
      "name": "DeadlinePassed",
      "type": "error"
    },
    {
      "inputs": [],
      "name": "EventNotFound",
      "type": "error"
    },
    {
      "inputs": [],
      "name": "InsufficientPayment",
      "type": "error"
    },
    {
      "inputs": [],
      "name": "MaxParticipantsReached",
      "type": "error"
    },
    {
      "inputs": [],
      "name": "RegistrationHasClosed",
      "type": "error"
    },
    {
      "inputs": [],
      "name": "Unauthorized",
      "type": "error"
    },
    {
      "anonymous": false,
      "inputs": [
        {
          "indexed": true,
          "internalType": "uint256",
          "name": "eventId",
          "type": "uint256"
        },
        {
          "indexed": false,
          "internalType": "string",
          "name": "name",
          "type": "string"
        },
        {
          "indexed": false,
          "internalType": "uint256",
          "name": "maxParticipants",
          "type": "uint256"
        },
        {
          "indexed": false,
          "internalType": "uint256",
          "name": "registrationFee",
          "type": "uint256"
        },
        {
          "indexed": false,
          "internalType": "uint256",
          "name": "deadline",
          "type": "uint256"
        },
        {
          "indexed": false,
          "internalType": "address",
          "name": "creator",
          "type": "address"
        }
      ],
      "name": "EventCreated",
      "type": "event"
    },
    {
      "anonymous": false,
      "inputs": [
        {
          "indexed": false,
          "internalType": "uint256",
          "name": "amount",
          "type": "uint256"
        }
      ],
      "name": "FundsWithdrawn",
      "type": "event"
    },
    {
      "anonymous": false,
      "inputs": [
        {
          "indexed": true,
          "internalType": "uint256",
          "name": "eventId",
          "type": "uint256"
        },
        {
          "indexed": false,
          "internalType": "address",
          "name": "participant",
          "type": "address"
        }
      ],
      "name": "ParticipantRegistered",
      "type": "event"
    },
    {
      "anonymous": false,
      "inputs": [
        {
          "indexed": true,
          "internalType": "address",
          "name": "recipient",
          "type": "address"
        },
        {
          "indexed": false,
          "internalType": "uint256",
          "name": "amount",
          "type": "uint256"
        }
      ],
      "name": "RefundIssued",
      "type": "event"
    },
    {
      "anonymous": false,
      "inputs": [
        {
          "indexed": true,
          "internalType": "uint256",
          "name": "eventId",
          "type": "uint256"
        }
      ],
      "name": "RegistrationClosed",
      "type": "event"
    },
    {
      "anonymous": false,
      "inputs": [
        {
          "indexed": true,
          "internalType": "uint256",
          "name": "eventId",
          "type": "uint256"
        }
      ],
      "name": "RegistrationOpened",
      "type": "event"
    },
    {
      "stateMutability": "payable",
      "type": "fallback"
    },
    {
      "inputs": [
        {
          "internalType": "uint256",
          "name": "_eventId",
          "type": "uint256"
        }
      ],
      "name": "closeRegistration",
      "outputs": [],
      "stateMutability": "nonpayable",
      "type": "function"
    },
    {
      "inputs": [],
      "name": "contractOwner",
      "outputs": [
        {
          "internalType": "address",
          "name": "",
          "type": "address"
        }
      ],
      "stateMutability": "view",
      "type": "function"
    },
    {
      "inputs": [
        {
          "internalType": "string",
          "name": "_name",
          "type": "string"
        },
        {
          "internalType": "uint256",
          "name": "_maxParticipants",
          "type": "uint256"
        },
        {
          "internalType": "uint256",
          "name": "_registrationFee",
          "type": "uint256"
        },
        {
          "internalType": "uint256",
          "name": "_daysUntilDeadline",
          "type": "uint256"
        }
      ],
      "name": "createEvent",
      "outputs": [],
      "stateMutability": "nonpayable",
      "type": "function"
    },
    {
      "inputs": [],
      "name": "eventCount",
      "outputs": [
        {
          "internalType": "uint256",
          "name": "",
          "type": "uint256"
        }
      ],
      "stateMutability": "view",
      "type": "function"
    },
    {
      "inputs": [
        {
          "internalType": "uint256",
          "name": "",
          "type": "uint256"
        }
      ],
      "name": "events",
      "outputs": [
        {
          "internalType": "string",
          "name": "name",
          "type": "string"
        },
        {
          "internalType": "uint256",
          "name": "maxParticipants",
          "type": "uint256"
        },
        {
          "internalType": "uint256",
          "name": "registrationFee",
          "type": "uint256"
        },
        {
          "internalType": "uint256",
          "name": "deadline",
          "type": "uint256"
        },
        {
          "internalType": "bool",
          "name": "isOpen",
          "type": "bool"
        },
        {
          "internalType": "address",
          "name": "creator",
          "type": "address"
        }
      ],
      "stateMutability": "view",
      "type": "function"
    },
    {
      "inputs": [
        {
          "internalType": "uint256",
          "name": "_eventId",
          "type": "uint256"
        }
      ],
      "name": "getParticipants",
      "outputs": [
        {
          "internalType": "address[]",
          "name": "",
          "type": "address[]"
        }
      ],
      "stateMutability": "view",
      "type": "function"
    },
    {
      "inputs": [
        {
          "internalType": "uint256",
          "name": "_eventId",
          "type": "uint256"
        }
      ],
      "name": "openRegistration",
      "outputs": [],
      "stateMutability": "nonpayable",
      "type": "function"
    },
    {
      "inputs": [
        {
          "internalType": "uint256",
          "name": "_eventId",
          "type": "uint256"
        }
      ],
      "name": "registerForEvent",
      "outputs": [],
      "stateMutability": "payable",
      "type": "function"
    },
    {
      "inputs": [
        {
          "internalType": "uint256",
          "name": "",
          "type": "uint256"
        },
        {
          "internalType": "address",
          "name": "",
          "type": "address"
        }
      ],
      "name": "registered",
      "outputs": [
        {
          "internalType": "bool",
          "name": "",
          "type": "bool"
        }
      ],
      "stateMutability": "view",
      "type": "function"
    },
    {
      "inputs": [],
      "name": "withdrawFunds",
      "outputs": [],
      "stateMutability": "nonpayable",
      "type": "function"
    },
    {
      "stateMutability": "payable",
      "type": "receive"
    }
  ],
  "bytecode": "0x60a060405234801561001057600080fd5b503373ffffffffffffffffffffffffffffffffffffffff1660808173ffffffffffffffffffffffffffffffffffffffff1681525050608051611f9561006e60003960008181610680015281816107b701526111040152611f956000f3fe6080604052600436106100955760003560e01c806371be2e4a1161005957806371be2e4a146101d75780638c817b6e14610202578063c1e3bd3e1461023f578063cca84a0c1461027c578063ce606ee0146102a5576100d5565b80630374ab0b146101105780630b7914301461013957806324600fc31461017b578063406db843146101925780635e54a140146101ae576100d5565b366100d5576040517f08c379a00000000000000000000000000000000000000000000000000000000081526004016100cc9061122a565b60405180910390fd5b6040517f08c379a000000000000000000000000000000000000000000000000000000000815260040161010790611296565b60405180910390fd5b34801561011c57600080fd5b5061013760048036038101906101329190611446565b6102d0565b005b34801561014557600080fd5b50610160600480360381019061015b91906114c9565b61058d565b604051610172969594939291906115cf565b60405180910390f35b34801561018757600080fd5b5061019061067e565b005b6101ac60048036038101906101a791906114c9565b610871565b005b3480156101ba57600080fd5b506101d560048036038101906101d091906114c9565b610ccb565b005b3480156101e357600080fd5b506101ec610e5b565b6040516101f99190611637565b60405180910390f35b34801561020e57600080fd5b506102296004803603810190610224919061167e565b610e61565b60405161023691906116be565b60405180910390f35b34801561024b57600080fd5b50610266600480360381019061026191906114c9565b610e90565b6040516102739190611797565b60405180910390f35b34801561028857600080fd5b506102a3600480360381019061029e91906114c9565b610f71565b005b3480156102b157600080fd5b506102ba611102565b6040516102c791906117b9565b60405180910390f35b600060f81b846000815181106102e9576102e86117d4565b5b602001015160f81c60f81b7effffffffffffffffffffffffffffffffffffffffffffffffffffffffffffff191603610356576040517f08c379a000000000000000000000000000000000000000000000000000000000815260040161034d9061184f565b60405180910390fd5b60008111610399576040517f08c379a0000000000000000000000000000000000000000000000000000000008152600401610390906118e1565b60405180910390fd5b600083116103aa576103a9611901565b5b600062015180826103bb919061195f565b426103c691906119a1565b905060008060008154809291906103dc906119d5565b9190505590506040518060e001604052808781526020018681526020018581526020018381526020016000151581526020013373ffffffffffffffffffffffffffffffffffffffff168152602001600067ffffffffffffffff811115610445576104446112e5565b5b6040519080825280602002602001820160405280156104735781602001602082028036833780820191505090505b5081525060026000838152602001908152602001600020600082015181600001908161049f9190611c29565b5060208201518160010155604082015181600201556060820151816003015560808201518160040160006101000a81548160ff02191690831515021790555060a08201518160040160016101000a81548173ffffffffffffffffffffffffffffffffffffffff021916908373ffffffffffffffffffffffffffffffffffffffff16021790555060c0820151816005019080519060200190610541929190611126565b50905050807fca468f9dfa5e8e69f7a91c44f5cba1020284731b0d80eeddfa11d8db501f246b878787863360405161057d959493929190611cfb565b60405180910390a2505050505050565b60026020528060005260406000206000915090508060000180546105b090611a4c565b80601f01602080910402602001604051908101604052809291908181526020018280546105dc90611a4c565b80156106295780601f106105fe57610100808354040283529160200191610629565b820191906000526020600020905b81548152906001019060200180831161060c57829003601f168201915b5050505050908060010154908060020154908060030154908060040160009054906101000a900460ff16908060040160019054906101000a900473ffffffffffffffffffffffffffffffffffffffff16905086565b7f000000000000000000000000000000000000000000000000000000000000000073ffffffffffffffffffffffffffffffffffffffff163373ffffffffffffffffffffffffffffffffffffffff1614610703576040517f82b4290000000000000000000000000000000000000000000000000000000000815260040160405180910390fd5b600160009054906101000a900460ff1615610753576040517f08c379a000000000000000000000000000000000000000000000000000000000815260040161074a90611dc7565b60405180910390fd5b60018060006101000a81548160ff0219169083151502179055506000479050600081116107b5576040517f08c379a00000000000000000000000000000000000000000000000000000000081526004016107ac90611e33565b60405180910390fd5b7f000000000000000000000000000000000000000000000000000000000000000073ffffffffffffffffffffffffffffffffffffffff166108fc829081150290604051600060405180830381858888f1935050505015801561081b573d6000803e3d6000fd5b507f4a37b25aab49761ecf63117fe82b98d750917451133cf797507bc9fb5b96044a8160405161084b9190611637565b60405180910390a1506000600160006101000a81548160ff021916908315150217905550565b8060005481106108ad576040517f5add554300000000000000000000000000000000000000000000000000000000815260040160405180910390fd5b600160009054906101000a900460ff16156108fd576040517f08c379a00000000000000000000000000000000000000000000000000000000081526004016108f490611dc7565b60405180910390fd5b60018060006101000a81548160ff021916908315150217905550600060026000848152602001908152602001600020905060008160040160009054906101000a900460ff16905060008260010154905060008360020154905060008460030154905060008560050190508461099e576040517f78d6f61300000000000000000000000000000000000000000000000000000000815260040160405180910390fd5b838180549050106109db576040517f6c8c8d2100000000000000000000000000000000000000000000000000000000815260040160405180910390fd5b82341015610a15576040517fcd1c886700000000000000000000000000000000000000000000000000000000815260040160405180910390fd5b81421115610a4f576040517f70f65caa00000000000000000000000000000000000000000000000000000000815260040160405180910390fd5b6003600089815260200190815260200160002060003373ffffffffffffffffffffffffffffffffffffffff1673ffffffffffffffffffffffffffffffffffffffff16815260200190815260200160002060009054906101000a900460ff1615610ae4576040517f3a81d6fc00000000000000000000000000000000000000000000000000000000815260040160405180910390fd5b80339080600181540180825580915050600190039060005260206000200160009091909190916101000a81548173ffffffffffffffffffffffffffffffffffffffff021916908373ffffffffffffffffffffffffffffffffffffffff1602179055506001600360008a815260200190815260200160002060003373ffffffffffffffffffffffffffffffffffffffff1673ffffffffffffffffffffffffffffffffffffffff16815260200190815260200160002060006101000a81548160ff021916908315150217905550877f78337b3a0cfc36faafab5a292dc7571f6bd68ba681c22e15c97b1e3469b51a0233604051610bdf91906117b9565b60405180910390a26000833411610bf7576000610c04565b8334610c039190611e53565b5b90506000811115610ca5573373ffffffffffffffffffffffffffffffffffffffff166108fc829081150290604051600060405180830381858888f19350505050158015610c55573d6000803e3d6000fd5b503373ffffffffffffffffffffffffffffffffffffffff167fa171b6942063c6f2800ce40a780edce37baa2b618571b11eedd1e69e626e7d7682604051610c9c9190611637565b60405180910390a25b505050505050506000600160006101000a81548160ff0219169083151502179055505050565b806000548110610d07576040517f5add554300000000000000000000000000000000000000000000000000000000815260040160405180910390fd5b816002600082815260200190815260200160002060040160019054906101000a900473ffffffffffffffffffffffffffffffffffffffff1673ffffffffffffffffffffffffffffffffffffffff163373ffffffffffffffffffffffffffffffffffffffff1614610da3576040517f82b4290000000000000000000000000000000000000000000000000000000000815260040160405180910390fd5b60006002600085815260200190815260200160002090508060040160009054906101000a900460ff16610e0b576040517f08c379a0000000000000000000000000000000000000000000000000000000008152600401610e0290611ed3565b60405180910390fd5b60008160040160006101000a81548160ff021916908315150217905550837f383b6ce38b867405b4f42fa404692e07842868068badd063c9bfeb0e7f263f6260405160405180910390a250505050565b60005481565b60036020528160005260406000206020528060005260406000206000915091509054906101000a900460ff1681565b6060816000548110610ece576040517f5add554300000000000000000000000000000000000000000000000000000000815260040160405180910390fd5b60026000848152602001908152602001600020600501805480602002602001604051908101604052809291908181526020018280548015610f6457602002820191906000526020600020905b8160009054906101000a900473ffffffffffffffffffffffffffffffffffffffff1673ffffffffffffffffffffffffffffffffffffffff1681526020019060010190808311610f1a575b5050505050915050919050565b806000548110610fad576040517f5add554300000000000000000000000000000000000000000000000000000000815260040160405180910390fd5b816002600082815260200190815260200160002060040160019054906101000a900473ffffffffffffffffffffffffffffffffffffffff1673ffffffffffffffffffffffffffffffffffffffff163373ffffffffffffffffffffffffffffffffffffffff1614611049576040517f82b4290000000000000000000000000000000000000000000000000000000000815260040160405180910390fd5b60006002600085815260200190815260200160002090508060040160009054906101000a900460ff16156110b2576040517f08c379a00000000000000000000000000000000000000000000000000000000081526004016110a990611f3f565b60405180910390fd5b60018160040160006101000a81548160ff021916908315150217905550837fe0a3eabfba8d6b242de244fdd6f0372ee66d472686b2cfd89420ef24c046220160405160405180910390a250505050565b7f000000000000000000000000000000000000000000000000000000000000000081565b82805482825590600052602060002090810192821561119f579160200282015b8281111561119e5782518260006101000a81548173ffffffffffffffffffffffffffffffffffffffff021916908373ffffffffffffffffffffffffffffffffffffffff16021790555091602001919060010190611146565b5b5090506111ac91906111b0565b5090565b5b808211156111c95760008160009055506001016111b1565b5090565b600082825260208201905092915050565b7f446972656374207061796d656e7473206e6f7420616363657074656400000000600082015250565b6000611214601c836111cd565b915061121f826111de565b602082019050919050565b6000602082019050818103600083015261124381611207565b9050919050565b7f46756e6374696f6e20646f6573206e6f74206578697374000000000000000000600082015250565b60006112806017836111cd565b915061128b8261124a565b602082019050919050565b600060208201905081810360008301526112af81611273565b9050919050565b6000604051905090565b600080fd5b600080fd5b600080fd5b600080fd5b6000601f19601f8301169050919050565b7f4e487b7100000000000000000000000000000000000000000000000000000000600052604160045260246000fd5b61131d826112d4565b810181811067ffffffffffffffff8211171561133c5761133b6112e5565b5b80604052505050565b600061134f6112b6565b905061135b8282611314565b919050565b600067ffffffffffffffff82111561137b5761137a6112e5565b5b611384826112d4565b9050602081019050919050565b82818337600083830152505050565b60006113b36113ae84611360565b611345565b9050828152602081018484840111156113cf576113ce6112cf565b5b6113da848285611391565b509392505050565b600082601f8301126113f7576113f66112ca565b5b81356114078482602086016113a0565b91505092915050565b6000819050919050565b61142381611410565b811461142e57600080fd5b50565b6000813590506114408161141a565b92915050565b600080600080608085870312156114605761145f6112c0565b5b600085013567ffffffffffffffff81111561147e5761147d6112c5565b5b61148a878288016113e2565b945050602061149b87828801611431565b93505060406114ac87828801611431565b92505060606114bd87828801611431565b91505092959194509250565b6000602082840312156114df576114de6112c0565b5b60006114ed84828501611431565b91505092915050565b600081519050919050565b60005b8381101561151f578082015181840152602081019050611504565b60008484015250505050565b6000611536826114f6565b61154081856111cd565b9350611550818560208601611501565b611559816112d4565b840191505092915050565b61156d81611410565b82525050565b60008115159050919050565b61158881611573565b82525050565b600073ffffffffffffffffffffffffffffffffffffffff82169050919050565b60006115b98261158e565b9050919050565b6115c9816115ae565b82525050565b600060c08201905081810360008301526115e9818961152b565b90506115f86020830188611564565b6116056040830187611564565b6116126060830186611564565b61161f608083018561157f565b61162c60a08301846115c0565b979650505050505050565b600060208201905061164c6000830184611564565b92915050565b61165b816115ae565b811461166657600080fd5b50565b60008135905061167881611652565b92915050565b60008060408385031215611695576116946112c0565b5b60006116a385828601611431565b92505060206116b485828601611669565b9150509250929050565b60006020820190506116d3600083018461157f565b92915050565b600081519050919050565b600082825260208201905092915050565b6000819050602082019050919050565b61170e816115ae565b82525050565b60006117208383611705565b60208301905092915050565b6000602082019050919050565b6000611744826116d9565b61174e81856116e4565b9350611759836116f5565b8060005b8381101561178a5781516117718882611714565b975061177c8361172c565b92505060018101905061175d565b5085935050505092915050565b600060208201905081810360008301526117b18184611739565b905092915050565b60006020820190506117ce60008301846115c0565b92915050565b7f4e487b7100000000000000000000000000000000000000000000000000000000600052603260045260246000fd5b7f4576656e74206e616d652063616e6e6f7420626520656d707479000000000000600082015250565b6000611839601a836111cd565b915061184482611803565b602082019050919050565b600060208201905081810360008301526118688161182c565b9050919050565b7f446561646c696e65206d757374206265206174206c656173742031206461792060008201527f696e207468652066757475726500000000000000000000000000000000000000602082015250565b60006118cb602d836111cd565b91506118d68261186f565b604082019050919050565b600060208201905081810360008301526118fa816118be565b9050919050565b7f4e487b7100000000000000000000000000000000000000000000000000000000600052600160045260246000fd5b7f4e487b7100000000000000000000000000000000000000000000000000000000600052601160045260246000fd5b600061196a82611410565b915061197583611410565b925082820261198381611410565b9150828204841483151761199a57611999611930565b5b5092915050565b60006119ac82611410565b91506119b783611410565b92508282019050808211156119cf576119ce611930565b5b92915050565b60006119e082611410565b91507fffffffffffffffffffffffffffffffffffffffffffffffffffffffffffffffff8203611a1257611a11611930565b5b600182019050919050565b7f4e487b7100000000000000000000000000000000000000000000000000000000600052602260045260246000fd5b60006002820490506001821680611a6457607f821691505b602082108103611a7757611a76611a1d565b5b50919050565b60008190508160005260206000209050919050565b60006020601f8301049050919050565b600082821b905092915050565b600060088302611adf7fffffffffffffffffffffffffffffffffffffffffffffffffffffffffffffffff82611aa2565b611ae98683611aa2565b95508019841693508086168417925050509392505050565b6000819050919050565b6000611b26611b21611b1c84611410565b611b01565b611410565b9050919050565b6000819050919050565b611b4083611b0b565b611b54611b4c82611b2d565b848454611aaf565b825550505050565b600090565b611b69611b5c565b611b74818484611b37565b505050565b5b81811015611b9857611b8d600082611b61565b600181019050611b7a565b5050565b601f821115611bdd57611bae81611a7d565b611bb784611a92565b81016020851015611bc6578190505b611bda611bd285611a92565b830182611b79565b50505b505050565b600082821c905092915050565b6000611c0060001984600802611be2565b1980831691505092915050565b6000611c198383611bef565b9150826002028217905092915050565b611c32826114f6565b67ffffffffffffffff811115611c4b57611c4a6112e5565b5b611c558254611a4c565b611c60828285611b9c565b600060209050601f831160018114611c935760008415611c81578287015190505b611c8b8582611c0d565b865550611cf3565b601f198416611ca186611a7d565b60005b82811015611cc957848901518255600182019150602085019450602081019050611ca4565b86831015611ce65784890151611ce2601f891682611bef565b8355505b6001600288020188555050505b505050505050565b600060a0820190508181036000830152611d15818861152b565b9050611d246020830187611564565b611d316040830186611564565b611d3e6060830185611564565b611d4b60808301846115c0565b9695505050505050565b7f53746f70206d616b696e67207265656e7472616e63792063616c6c732120506c60008201527f6561736520686f6c642e00000000000000000000000000000000000000000000602082015250565b6000611db1602a836111cd565b9150611dbc82611d55565b604082019050919050565b60006020820190508181036000830152611de081611da4565b9050919050565b7f4e6f2066756e647320746f207769746864726177000000000000000000000000600082015250565b6000611e1d6014836111cd565b9150611e2882611de7565b602082019050919050565b60006020820190508181036000830152611e4c81611e10565b9050919050565b6000611e5e82611410565b9150611e6983611410565b9250828203905081811115611e8157611e80611930565b5b92915050565b7f526567697374726174696f6e20697320616c726561647920636c6f7365640000600082015250565b6000611ebd601e836111cd565b9150611ec882611e87565b602082019050919050565b60006020820190508181036000830152611eec81611eb0565b9050919050565b7f526567697374726174696f6e20697320616c7265616479206f70656e00000000600082015250565b6000611f29601c836111cd565b9150611f3482611ef3565b602082019050919050565b60006020820190508181036000830152611f5881611f1c565b905091905056fea2646970667358221220d0ec153cacf3cb993cbc77d4093d1af74b1d6584eedde8f6068615580f2ec39f64736f6c63430008180033",
  "linkReferences": {},
  "deployedLinkReferences": {}
}